:020000040800F2
:1000000000000220C90100081902000819020008B6
:100010001902000819020008190200080000000077
:1000200000000000000000000000000019020008AD
:100030001902000800000000190200081902000857
:100040001902000819020008190200081902000824
:100050001902000819020008190200081902000814
:100060001902000819020008190200081902000804
:1000700019020008190200081902000819020008F4
:1000800019020008190200081902000819020008E4
:1000900019020008190200081902000819020008D4
:1000A00019020008190200081902000819020008C4
:1000B00019020008190200081902000819020008B4
:1000C00019020008190200081902000819020008A4
:1000D0001902000819020008190200081902000894
:1000E0001902000819020008190200081902000884
:1000F0001902000819020008190200081902000874
:100100001902000819020008190200081902000863
:100110001902000819020008190200081902000853
:100120001902000819020008190200081902000843
:100130001902000819020008190200081902000833
:100140001902000819020008190200081902000823
:100150001902000819020008190200081902000813
:100160001902000819020008190200081902000803
:100170001902000819020008190200080000000016
:08018000190200081902000831
:1001880010B5054C237833B9044B13B10448AFF3C9
:1001980000800123237010BD000000200000000033
:1001A800F802000808B5034B1BB103490348AFF335
:1001B800008008BD0000000004000020F8020008CC
:1001C800DFF834D0002103E00C4B5B584350043176
:1001D8000B480C4B42189A42F6D30B4A02E0002314
:1001E80042F8043B094B9A42F9D300F013F800F0A7
:1001F8005BF800F041F8704700000220180300087F
:100208000000002000000020000000201C0000204A
:10021800FEE700000C4B1A68002142F001021A6048
:1002280099601A6822F0847222F480321A60074AB0
:100238005A601A6822F480221A60D960044B4FF081
:1002480000629A60704700BF0038024010300024F6
:1002580000ED00E0074A136B43F008031363A2F5AF
:100268003052136823F0804323F4404343F0804323
:10027800136070470038024008B5FFF7EBFF074BE3
:1002880007484FF6FF715A690A435A615A69024092
:100298005A61044A013AFDD1F5E700BF000C02405B
:1002A8000000FFFFA086010070B50D4D0D4C641BCA
:1002B800A4100026A64209D10B4D0C4C00F018F8EA
:1002C800641BA4100026A64205D170BD55F8043B56
:1002D80098470136EEE755F8043B98470136F2E7B0
:1002E8001003000810030008100300081403000896
:1002F800F8B500BFF8BC08BC9E467047F8B500BF0B
:08030800F8BC08BC9E467047DA
:04031000AD01000833
:040314008901000853
:04000005080001C925
:00000001FF
